{
  "contractName": "NexB",
  "abi": [
    {
      "inputs": [
        {
          "internalType": "string",
          "name": "name",
          "type": "string"
        },
        {
          "internalType": "string",
          "name": "symbol",
          "type": "string"
        },
        {
          "internalType": "uint256",
          "name": "supply",
          "type": "uint256"
        },
        {
          "internalType": "address",
          "name": "governance_",
          "type": "address"
        }
      ],
      "stateMutability": "nonpayable",
      "type": "constructor"
    },
    {
      "anonymous": false,
      "inputs": [
        {
          "indexed": true,
          "internalType": "address",
          "name": "owner",
          "type": "address"
        },
        {
          "indexed": true,
          "internalType": "address",
          "name": "spender",
          "type": "address"
        },
        {
          "indexed": false,
          "internalType": "uint256",
          "name": "value",
          "type": "uint256"
        }
      ],
      "name": "Approval",
      "type": "event"
    },
    {
      "anonymous": false,
      "inputs": [
        {
          "indexed": true,
          "internalType": "address",
          "name": "from",
          "type": "address"
        },
        {
          "indexed": true,
          "internalType": "address",
          "name": "to",
          "type": "address"
        },
        {
          "indexed": false,
          "internalType": "uint256",
          "name": "value",
          "type": "uint256"
        }
      ],
      "name": "Transfer",
      "type": "event"
    },
    {
      "anonymous": false,
      "inputs": [
        {
          "indexed": false,
          "internalType": "address",
          "name": "account",
          "type": "address"
        },
        {
          "indexed": false,
          "internalType": "uint256",
          "name": "tokenAmount",
          "type": "uint256"
        }
      ],
      "name": "burned",
      "type": "event"
    },
    {
      "anonymous": false,
      "inputs": [],
      "name": "paused",
      "type": "event"
    },
    {
      "anonymous": false,
      "inputs": [],
      "name": "unpaused",
      "type": "event"
    },
    {
      "inputs": [],
      "name": "admin",
      "outputs": [
        {
          "internalType": "address",
          "name": "",
          "type": "address"
        }
      ],
      "stateMutability": "view",
      "type": "function",
      "constant": true
    },
    {
      "inputs": [
        {
          "internalType": "address",
          "name": "owner",
          "type": "address"
        },
        {
          "internalType": "address",
          "name": "spender",
          "type": "address"
        }
      ],
      "name": "allowance",
      "outputs": [
        {
          "internalType": "uint256",
          "name": "",
          "type": "uint256"
        }
      ],
      "stateMutability": "view",
      "type": "function",
      "constant": true
    },
    {
      "inputs": [
        {
          "internalType": "address",
          "name": "spender",
          "type": "address"
        },
        {
          "internalType": "uint256",
          "name": "amount",
          "type": "uint256"
        }
      ],
      "name": "approve",
      "outputs": [
        {
          "internalType": "bool",
          "name": "",
          "type": "bool"
        }
      ],
      "stateMutability": "nonpayable",
      "type": "function"
    },
    {
      "inputs": [
        {
          "internalType": "address",
          "name": "account",
          "type": "address"
        }
      ],
      "name": "balanceOf",
      "outputs": [
        {
          "internalType": "uint256",
          "name": "",
          "type": "uint256"
        }
      ],
      "stateMutability": "view",
      "type": "function",
      "constant": true
    },
    {
      "inputs": [],
      "name": "decimals",
      "outputs": [
        {
          "internalType": "uint8",
          "name": "",
          "type": "uint8"
        }
      ],
      "stateMutability": "view",
      "type": "function",
      "constant": true
    },
    {
      "inputs": [
        {
          "internalType": "address",
          "name": "spender",
          "type": "address"
        },
        {
          "internalType": "uint256",
          "name": "subtractedValue",
          "type": "uint256"
        }
      ],
      "name": "decreaseAllowance",
      "outputs": [
        {
          "internalType": "bool",
          "name": "",
          "type": "bool"
        }
      ],
      "stateMutability": "nonpayable",
      "type": "function"
    },
    {
      "inputs": [],
      "name": "governance",
      "outputs": [
        {
          "internalType": "address",
          "name": "",
          "type": "address"
        }
      ],
      "stateMutability": "view",
      "type": "function",
      "constant": true
    },
    {
      "inputs": [
        {
          "internalType": "address",
          "name": "spender",
          "type": "address"
        },
        {
          "internalType": "uint256",
          "name": "addedValue",
          "type": "uint256"
        }
      ],
      "name": "increaseAllowance",
      "outputs": [
        {
          "internalType": "bool",
          "name": "",
          "type": "bool"
        }
      ],
      "stateMutability": "nonpayable",
      "type": "function"
    },
    {
      "inputs": [],
      "name": "name",
      "outputs": [
        {
          "internalType": "string",
          "name": "",
          "type": "string"
        }
      ],
      "stateMutability": "view",
      "type": "function",
      "constant": true
    },
    {
      "inputs": [],
      "name": "pause",
      "outputs": [
        {
          "internalType": "uint256",
          "name": "",
          "type": "uint256"
        }
      ],
      "stateMutability": "view",
      "type": "function",
      "constant": true
    },
    {
      "inputs": [],
      "name": "symbol",
      "outputs": [
        {
          "internalType": "string",
          "name": "",
          "type": "string"
        }
      ],
      "stateMutability": "view",
      "type": "function",
      "constant": true
    },
    {
      "inputs": [],
      "name": "totalSupply",
      "outputs": [
        {
          "internalType": "uint256",
          "name": "",
          "type": "uint256"
        }
      ],
      "stateMutability": "view",
      "type": "function",
      "constant": true
    },
    {
      "inputs": [
        {
          "internalType": "address",
          "name": "recipient",
          "type": "address"
        },
        {
          "internalType": "uint256",
          "name": "amount",
          "type": "uint256"
        }
      ],
      "name": "transfer",
      "outputs": [
        {
          "internalType": "bool",
          "name": "",
          "type": "bool"
        }
      ],
      "stateMutability": "nonpayable",
      "type": "function"
    },
    {
      "inputs": [
        {
          "internalType": "address",
          "name": "sender",
          "type": "address"
        },
        {
          "internalType": "address",
          "name": "recipient",
          "type": "address"
        },
        {
          "internalType": "uint256",
          "name": "amount",
          "type": "uint256"
        }
      ],
      "name": "transferFrom",
      "outputs": [
        {
          "internalType": "bool",
          "name": "",
          "type": "bool"
        }
      ],
      "stateMutability": "nonpayable",
      "type": "function"
    },
    {
      "inputs": [
        {
          "internalType": "address",
          "name": "account",
          "type": "address"
        },
        {
          "internalType": "uint256",
          "name": "tokenAmount",
          "type": "uint256"
        }
      ],
      "name": "userBurn",
      "outputs": [],
      "stateMutability": "nonpayable",
      "type": "function"
    },
    {
      "inputs": [
        {
          "internalType": "address",
          "name": "account",
          "type": "address"
        },
        {
          "internalType": "uint256",
          "name": "tokenAmount",
          "type": "uint256"
        }
      ],
      "name": "adminBurn",
      "outputs": [],
      "stateMutability": "nonpayable",
      "type": "function"
    },
    {
      "inputs": [
        {
          "internalType": "uint256",
          "name": "val",
          "type": "uint256"
        }
      ],
      "name": "pauseContract",
      "outputs": [],
      "stateMutability": "nonpayable",
      "type": "function"
    },
    {
      "inputs": [
        {
          "internalType": "address[]",
          "name": "blacklistedAddress",
          "type": "address[]"
        },
        {
          "internalType": "uint256",
          "name": "val",
          "type": "uint256"
        }
      ],
      "name": "addBlacklist",
      "outputs": [],
      "stateMutability": "nonpayable",
      "type": "function"
    },
    {
      "inputs": [
        {
          "internalType": "address[]",
          "name": "blacklistedAddress",
          "type": "address[]"
        }
      ],
      "name": "removeBlacklist",
      "outputs": [],
      "stateMutability": "nonpayable",
      "type": "function"
    },
    {
      "inputs": [
        {
          "internalType": "address",
          "name": "governance_",
          "type": "address"
        }
      ],
      "name": "modifyGovernance",
      "outputs": [],
      "stateMutability": "nonpayable",
      "type": "function"
    }
  ],
  "bytecode": "0x60806040523480156200001157600080fd5b5060405162003e2738038062003e2783398181016040528101906200003791906200058d565b838382826004908051906020019062000052929190620002a0565b5081600590805190602001906200006b929190620002a0565b5080600760006101000a81548173ffffffffffffffffffffffffffffffffffffffff021916908373ffffffffffffffffffffffffffffffffffffffff16021790555060006006819055505050506001600881905550620000d233836200011d60201b60201c565b33600960006101000a81548173ffffffffffffffffffffffffffffffffffffffff021916908373ffffffffffffffffffffffffffffffffffffffff16021790555050505050620007df565b600073ffffffffffffffffffffffffffffffffffffffff168273ffffffffffffffffffffffffffffffffffffffff16141562000190576040517f08c379a000000000000000000000000000000000000000000000000000000000815260040162000187906200069e565b60405180910390fd5b620001a4600083836200029660201b60201c565b8060036000828254620001b89190620006ef565b92505081905550806000808473ffffffffffffffffffffffffffffffffffffffff1673ffffffffffffffffffffffffffffffffffffffff16815260200190815260200160002060008282546200020f9190620006ef565b925050819055508173ffffffffffffffffffffffffffffffffffffffff16600073ffffffffffffffffffffffffffffffffffffffff167fddf252ad1be2c89b69c2b068fc378daa952ba7f163c4a11628f55a4df523b3ef836040516200027691906200075d565b60405180910390a362000292600083836200029b60201b60201c565b5050565b505050565b505050565b828054620002ae90620007a9565b90600052602060002090601f016020900481019282620002d257600085556200031e565b82601f10620002ed57805160ff19168380011785556200031e565b828001600101855582156200031e579182015b828111156200031d57825182559160200191906001019062000300565b5b5090506200032d919062000331565b5090565b5b808211156200034c57600081600090555060010162000332565b5090565b6000604051905090565b600080fd5b600080fd5b600080fd5b600080fd5b6000601f19601f8301169050919050565b7f4e487b7100000000000000000000000000000000000000000000000000000000600052604160045260246000fd5b620003b9826200036e565b810181811067ffffffffffffffff82111715620003db57620003da6200037f565b5b80604052505050565b6000620003f062000350565b9050620003fe8282620003ae565b919050565b600067ffffffffffffffff8211156200042157620004206200037f565b5b6200042c826200036e565b9050602081019050919050565b60005b83811015620004595780820151818401526020810190506200043c565b8381111562000469576000848401525b50505050565b600062000486620004808462000403565b620003e4565b905082815260208101848484011115620004a557620004a462000369565b5b620004b284828562000439565b509392505050565b600082601f830112620004d257620004d162000364565b5b8151620004e48482602086016200046f565b91505092915050565b6000819050919050565b6200050281620004ed565b81146200050e57600080fd5b50565b6000815190506200052281620004f7565b92915050565b600073ffffffffffffffffffffffffffffffffffffffff82169050919050565b6000620005558262000528565b9050919050565b620005678162000548565b81146200057357600080fd5b50565b60008151905062000587816200055c565b92915050565b60008060008060808587031215620005aa57620005a96200035a565b5b600085015167ffffffffffffffff811115620005cb57620005ca6200035f565b5b620005d987828801620004ba565b945050602085015167ffffffffffffffff811115620005fd57620005fc6200035f565b5b6200060b87828801620004ba565b93505060406200061e8782880162000511565b9250506060620006318782880162000576565b91505092959194509250565b600082825260208201905092915050565b7f45524332303a206d696e7420746f20746865207a65726f206164647265737300600082015250565b600062000686601f836200063d565b915062000693826200064e565b602082019050919050565b60006020820190508181036000830152620006b98162000677565b9050919050565b7f4e487b7100000000000000000000000000000000000000000000000000000000600052601160045260246000fd5b6000620006fc82620004ed565b91506200070983620004ed565b9250827fffffffffffffffffffffffffffffffffffffffffffffffffffffffffffffffff03821115620007415762000740620006c0565b5b828201905092915050565b6200075781620004ed565b82525050565b60006020820190506200077460008301846200074c565b92915050565b7f4e487b7100000000000000000000000000000000000000000000000000000000600052602260045260246000fd5b60006002820490506001821680620007c257607f821691505b60208210811415620007d957620007d86200077a565b5b50919050565b61363880620007ef6000396000f3fe608060405234801561001057600080fd5b506004361061012c5760003560e01c80637911ef9d116100ad578063c0207c2f11610071578063c0207c2f14610359578063c2852f3814610375578063dd62ed3e14610391578063dfcea3b4146103c1578063f851a440146103dd5761012c565b80637911ef9d146102a15780638456cb59146102bd57806395d89b41146102db578063a457c2d7146102f9578063a9059cbb146103295761012c565b8063313ce567116100f4578063313ce567146101e9578063395093511461020757806354639406146102375780635aa6e6751461025357806370a08231146102715761012c565b806306dd04191461013157806306fdde031461014d578063095ea7b31461016b57806318160ddd1461019b57806323b872dd146101b9575b600080fd5b61014b60048036038101906101469190612533565b6103fb565b005b610155610637565b604051610162919061260c565b60405180910390f35b61018560048036038101906101809190612533565b61079b565b6040516101929190612649565b60405180910390f35b6101a3610917565b6040516101b09190612673565b60405180910390f35b6101d360048036038101906101ce919061268e565b6109f2565b6040516101e09190612649565b60405180910390f35b6101f1610bbb565b6040516101fe91906126fd565b60405180910390f35b610221600480360381019061021c9190612533565b610c95565b60405161022e9190612649565b60405180910390f35b610251600480360381019061024c9190612718565b610e9f565b005b61025b610f73565b6040516102689190612754565b60405180910390f35b61028b60048036038101906102869190612718565b610f99565b6040516102989190612673565b60405180910390f35b6102bb60048036038101906102b691906128b7565b6110b2565b005b6102c56111d7565b6040516102d29190612673565b60405180910390f35b6102e36111dd565b6040516102f0919061260c565b60405180910390f35b610313600480360381019061030e9190612533565b611341565b6040516103209190612649565b60405180910390f35b610343600480360381019061033e9190612533565b61158b565b6040516103509190612649565b60405180910390f35b610373600480360381019061036e9190612900565b611707565b005b61038f600480360381019061038a919061295c565b611845565b005b6103ab60048036038101906103a69190612989565b611a2f565b6040516103b89190612673565b60405180910390f35b6103db60048036038101906103d69190612533565b611b87565b005b6103e5611e30565b6040516103f29190612754565b60405180910390f35b600760009054906101000a900473ffffffffffffffffffffffffffffffffffffffff1673ffffffffffffffffffffffffffffffffffffffff163373ffffffffffffffffffffffffffffffffffffffff161461048b576040517f08c379a000000000000000000000000000000000000000000000000000000000815260040161048290612a15565b60405180910390fd5b6000600654146104d0576040517f08c379a00000000000000000000000000000000000000000000000000000000081526004016104c790612a81565b60405180910390fd5b600760009054906101000a900473ffffffffffffffffffffffffffffffffffffffff1673ffffffffffffffffffffffffffffffffffffffff163373ffffffffffffffffffffffffffffffffffffffff1614610560576040517f08c379a000000000000000000000000000000000000000000000000000000000815260040161055790612aed565b60405180910390fd5b600960009054906101000a900473ffffffffffffffffffffffffffffffffffffffff1673ffffffffffffffffffffffffffffffffffffffff168273ffffffffffffffffffffffffffffffffffffffff16146105f0576040517f08c379a00000000000000000000000000000000000000000000000000000000081526004016105e790612b59565b60405180910390fd5b6105fa8282611e56565b7f8b1897d4e7a3b42570088bb1182eb6518c96a754d44bc9edd4669568bfa98326828260405161062b929190612b79565b60405180910390a15050565b606060006006541461067e576040517f08c379a000000000000000000000000000000000000000000000000000000000815260040161067590612a81565b60405180910390fd5b600260003373ffffffffffffffffffffffffffffffffffffffff1673ffffffffffffffffffffffffffffffffffffffff16815260200190815260200160002060009054906101000a900460ff161561070b576040517f08c379a000000000000000000000000000000000000000000000000000000000815260040161070290612bee565b60405180910390fd5b6004805461071890612c3d565b80601f016020809104026020016040519081016040528092919081815260200182805461074490612c3d565b80156107915780601f1061076657610100808354040283529160200191610791565b820191906000526020600020905b81548152906001019060200180831161077457829003601f168201915b5050505050905090565b600080600654146107e1576040517f08c379a00000000000000000000000000000000000000000000000000000000081526004016107d890612a81565b60405180910390fd5b600260003373ffffffffffffffffffffffffffffffffffffffff1673ffffffffffffffffffffffffffffffffffffffff16815260200190815260200160002060009054906101000a900460ff161561086e576040517f08c379a000000000000000000000000000000000000000000000000000000000815260040161086590612bee565b60405180910390fd5b600260008473ffffffffffffffffffffffffffffffffffffffff1673ffffffffffffffffffffffffffffffffffffffff16815260200190815260200160002060009054906101000a900460ff16156108fb576040517f08c379a00000000000000000000000000000000000000000000000000000000081526004016108f290612ce1565b60405180910390fd5b61090d61090661202d565b8484612035565b6001905092915050565b6000806006541461095d576040517f08c379a000000000000000000000000000000000000000000000000000000000815260040161095490612a81565b60405180910390fd5b600260003373ffffffffffffffffffffffffffffffffffffffff1673ffffffffffffffffffffffffffffffffffffffff16815260200190815260200160002060009054906101000a900460ff16156109ea576040517f08c379a00000000000000000000000000000000000000000000000000000000081526004016109e190612bee565b60405180910390fd5b600354905090565b60008060065414610a38576040517f08c379a0000000000000000000000000000000000000000000000000000000008152600401610a2f90612a81565b60405180910390fd5b600260003373ffffffffffffffffffffffffffffffffffffffff1673ffffffffffffffffffffffffffffffffffffffff16815260200190815260200160002060009054906101000a900460ff1615610ac5576040517f08c379a0000000000000000000000000000000000000000000000000000000008152600401610abc90612bee565b60405180910390fd5b610ad0848484612200565b6000600160008673ffffffffffffffffffffffffffffffffffffffff1673ffffffffffffffffffffffffffffffffffffffff1681526020019081526020016000206000610b1b61202d565b73ffffffffffffffffffffffffffffffffffffffff1673ffffffffffffffffffffffffffffffffffffffff16815260200190815260200160002054905082811015610b9b576040517f08c379a0000000000000000000000000000000000000000000000000000000008152600401610b9290612d73565b60405180910390fd5b610baf85610ba761202d565b858403612035565b60019150509392505050565b60008060065414610c01576040517f08c379a0000000000000000000000000000000000000000000000000000000008152600401610bf890612a81565b60405180910390fd5b600260003373ffffffffffffffffffffffffffffffffffffffff1673ffffffffffffffffffffffffffffffffffffffff16815260200190815260200160002060009054906101000a900460ff1615610c8e576040517f08c379a0000000000000000000000000000000000000000000000000000000008152600401610c8590612bee565b60405180910390fd5b6012905090565b60008060065414610cdb576040517f08c379a0000000000000000000000000000000000000000000000000000000008152600401610cd290612a81565b60405180910390fd5b600260003373ffffffffffffffffffffffffffffffffffffffff1673ffffffffffffffffffffffffffffffffffffffff16815260200190815260200160002060009054906101000a900460ff1615610d68576040517f08c379a0000000000000000000000000000000000000000000000000000000008152600401610d5f90612bee565b60405180910390fd5b600260008473ffffffffffffffffffffffffffffffffffffffff1673ffffffffffffffffffffffffffffffffffffffff16815260200190815260200160002060009054906101000a900460ff1615610df5576040517f08c379a0000000000000000000000000000000000000000000000000000000008152600401610dec90612ddf565b60405180910390fd5b610e95610e0061202d565b848460016000610e0e61202d565b73ffffffffffffffffffffffffffffffffffffffff1673ffffffffffffffffffffffffffffffffffffffff16815260200190815260200160002060008873ffffffffffffffffffffffffffffffffffffffff1673ffffffffffffffffffffffffffffffffffffffff16815260200190815260200160002054610e909190612e2e565b612035565b6001905092915050565b600760009054906101000a900473ffffffffffffffffffffffffffffffffffffffff1673ffffffffffffffffffffffffffffffffffffffff163373ffffffffffffffffffffffffffffffffffffffff1614610f2f576040517f08c379a0000000000000000000000000000000000000000000000000000000008152600401610f2690612a15565b60405180910390fd5b80600760006101000a81548173ffffffffffffffffffffffffffffffffffffffff021916908373ffffffffffffffffffffffffffffffffffffffff16021790555050565b600760009054906101000a900473ffffffffffffffffffffffffffffffffffffffff1681565b60008060065414610fdf576040517f08c379a0000000000000000000000000000000000000000000000000000000008152600401610fd690612a81565b60405180910390fd5b600260003373ffffffffffffffffffffffffffffffffffffffff1673ffffffffffffffffffffffffffffffffffffffff16815260200190815260200160002060009054906101000a900460ff161561106c576040517f08c379a000000000000000000000000000000000000000000000000000000000815260040161106390612bee565b60405180910390fd5b6000808373ffffffffffffffffffffffffffffffffffffffff1673ffffffffffffffffffffffffffffffffffffffff168152602001908152602001600020549050919050565b600760009054906101000a900473ffffffffffffffffffffffffffffffffffffffff1673ffffffffffffffffffffffffffffffffffffffff163373ffffffffffffffffffffffffffffffffffffffff1614611142576040517f08c379a000000000000000000000000000000000000000000000000000000000815260040161113990612a15565b60405180910390fd5b60005b81518110156111d35760006002600084848151811061116757611166612e84565b5b602002602001015173ffffffffffffffffffffffffffffffffffffffff1673ffffffffffffffffffffffffffffffffffffffff16815260200190815260200160002060006101000a81548160ff02191690831515021790555080806111cb90612eb3565b915050611145565b5050565b60065481565b6060600060065414611224576040517f08c379a000000000000000000000000000000000000000000000000000000000815260040161121b90612a81565b60405180910390fd5b600260003373ffffffffffffffffffffffffffffffffffffffff1673ffffffffffffffffffffffffffffffffffffffff16815260200190815260200160002060009054906101000a900460ff16156112b1576040517f08c379a00000000000000000000000000000000000000000000000000000000081526004016112a890612bee565b60405180910390fd5b600580546112be90612c3d565b80601f01602080910402602001604051908101604052809291908181526020018280546112ea90612c3d565b80156113375780601f1061130c57610100808354040283529160200191611337565b820191906000526020600020905b81548152906001019060200180831161131a57829003601f168201915b5050505050905090565b60008060065414611387576040517f08c379a000000000000000000000000000000000000000000000000000000000815260040161137e90612a81565b60405180910390fd5b600260003373ffffffffffffffffffffffffffffffffffffffff1673ffffffffffffffffffffffffffffffffffffffff16815260200190815260200160002060009054906101000a900460ff1615611414576040517f08c379a000000000000000000000000000000000000000000000000000000000815260040161140b90612bee565b60405180910390fd5b600260008473ffffffffffffffffffffffffffffffffffffffff1673ffffffffffffffffffffffffffffffffffffffff16815260200190815260200160002060009054906101000a900460ff16156114a1576040517f08c379a000000000000000000000000000000000000000000000000000000000815260040161149890612ddf565b60405180910390fd5b6000600160006114af61202d565b73ffffffffffffffffffffffffffffffffffffffff1673ffffffffffffffffffffffffffffffffffffffff16815260200190815260200160002060008573ffffffffffffffffffffffffffffffffffffffff1673ffffffffffffffffffffffffffffffffffffffff1681526020019081526020016000205490508281101561156c576040517f08c379a000000000000000000000000000000000000000000000000000000000815260040161156390612f6e565b60405180910390fd5b61158061157761202d565b85858403612035565b600191505092915050565b600080600654146115d1576040517f08c379a00000000000000000000000000000000000000000000000000000000081526004016115c890612a81565b60405180910390fd5b600260003373ffffffffffffffffffffffffffffffffffffffff1673ffffffffffffffffffffffffffffffffffffffff16815260200190815260200160002060009054906101000a900460ff161561165e576040517f08c379a000000000000000000000000000000000000000000000000000000000815260040161165590612bee565b60405180910390fd5b600260008473ffffffffffffffffffffffffffffffffffffffff1673ffffffffffffffffffffffffffffffffffffffff16815260200190815260200160002060009054906101000a900460ff16156116eb576040517f08c379a00000000000000000000000000000000000000000000000000000000081526004016116e290613000565b60405180910390fd5b6116fd6116f661202d565b8484612200565b6001905092915050565b600760009054906101000a900473ffffffffffffffffffffffffffffffffffffffff1673ffffffffffffffffffffffffffffffffffffffff163373ffffffffffffffffffffffffffffffffffffffff1614611797576040517f08c379a000000000000000000000000000000000000000000000000000000000815260040161178e90612a15565b60405180910390fd5b60018114156118375760005b8251811015611831576001600260008584815181106117c5576117c4612e84565b5b602002602001015173ffffffffffffffffffffffffffffffffffffffff1673ffffffffffffffffffffffffffffffffffffffff16815260200190815260200160002060006101000a81548160ff021916908315150217905550808061182990612eb3565b9150506117a3565b50611841565b611840826110b2565b5b5050565b600760009054906101000a900473ffffffffffffffffffffffffffffffffffffffff1673ffffffffffffffffffffffffffffffffffffffff163373ffffffffffffffffffffffffffffffffffffffff16146118d5576040517f08c379a00000000000000000000000000000000000000000000000000000000081526004016118cc90612a15565b60405180910390fd5b60008114806118e45750600181145b611923576040517f08c379a000000000000000000000000000000000000000000000000000000000815260040161191a9061306c565b60405180910390fd5b600060065414156119a95760018114611971576040517f08c379a0000000000000000000000000000000000000000000000000000000008152600401611968906130d8565b60405180910390fd5b806006819055507f5c975abbf8c4d6efa68fc896e233763eb503f2318260b7bf59b19412913788b260405160405180910390a1611a2c565b60016006541415611a2b57600081146119f7576040517f08c379a00000000000000000000000000000000000000000000000000000000081526004016119ee90613144565b60405180910390fd5b806006819055507fb0b62f5a1a4cb1584265f808c74f121a13f37ab548b504b17eb11b64d006ea6660405160405180910390a15b5b50565b60008060065414611a75576040517f08c379a0000000000000000000000000000000000000000000000000000000008152600401611a6c90612a81565b60405180910390fd5b600260003373ffffffffffffffffffffffffffffffffffffffff1673ffffffffffffffffffffffffffffffffffffffff16815260200190815260200160002060009054906101000a900460ff1615611b02576040517f08c379a0000000000000000000000000000000000000000000000000000000008152600401611af990612bee565b60405180910390fd5b600160008473ffffffffffffffffffffffffffffffffffffffff1673ffffffffffffffffffffffffffffffffffffffff16815260200190815260200160002060008373ffffffffffffffffffffffffffffffffffffffff1673ffffffffffffffffffffffffffffffffffffffff16815260200190815260200160002054905092915050565b600060065414611bcc576040517f08c379a0000000000000000000000000000000000000000000000000000000008152600401611bc390612a81565b60405180910390fd5b600260003373ffffffffffffffffffffffffffffffffffffffff1673ffffffffffffffffffffffffffffffffffffffff16815260200190815260200160002060009054906101000a900460ff1615611c59576040517f08c379a0000000000000000000000000000000000000000000000000000000008152600401611c5090612bee565b60405180910390fd5b600960009054906101000a900473ffffffffffffffffffffffffffffffffffffffff1673ffffffffffffffffffffffffffffffffffffffff163373ffffffffffffffffffffffffffffffffffffffff161415611cea576040517f08c379a0000000000000000000000000000000000000000000000000000000008152600401611ce1906131b0565b60405180910390fd5b600760009054906101000a900473ffffffffffffffffffffffffffffffffffffffff1673ffffffffffffffffffffffffffffffffffffffff163373ffffffffffffffffffffffffffffffffffffffff161415611d7b576040517f08c379a0000000000000000000000000000000000000000000000000000000008152600401611d72906131b0565b60405180910390fd5b3373ffffffffffffffffffffffffffffffffffffffff168273ffffffffffffffffffffffffffffffffffffffff1614611de9576040517f08c379a0000000000000000000000000000000000000000000000000000000008152600401611de090612b59565b60405180910390fd5b611df38282611e56565b7f8b1897d4e7a3b42570088bb1182eb6518c96a754d44bc9edd4669568bfa983268282604051611e24929190612b79565b60405180910390a15050565b600960009054906101000a900473ffffffffffffffffffffffffffffffffffffffff1681565b600073ffffffffffffffffffffffffffffffffffffffff168273ffffffffffffffffffffffffffffffffffffffff161415611ec6576040517f08c379a0000000000000000000000000000000000000000000000000000000008152600401611ebd90613242565b60405180910390fd5b611ed282600083612481565b60008060008473ffffffffffffffffffffffffffffffffffffffff1673ffffffffffffffffffffffffffffffffffffffff16815260200190815260200160002054905081811015611f58576040517f08c379a0000000000000000000000000000000000000000000000000000000008152600401611f4f906132d4565b60405180910390fd5b8181036000808573ffffffffffffffffffffffffffffffffffffffff1673ffffffffffffffffffffffffffffffffffffffff168152602001908152602001600020819055508160036000828254611faf91906132f4565b92505081905550600073ffffffffffffffffffffffffffffffffffffffff168373ffffffffffffffffffffffffffffffffffffffff167fddf252ad1be2c89b69c2b068fc378daa952ba7f163c4a11628f55a4df523b3ef846040516120149190612673565b60405180910390a361202883600084612486565b505050565b600033905090565b600073ffffffffffffffffffffffffffffffffffffffff168373ffffffffffffffffffffffffffffffffffffffff1614156120a5576040517f08c379a000000000000000000000000000000000000000000000000000000000815260040161209c9061339a565b60405180910390fd5b600073ffffffffffffffffffffffffffffffffffffffff168273ffffffffffffffffffffffffffffffffffffffff161415612115576040517f08c379a000000000000000000000000000000000000000000000000000000000815260040161210c9061342c565b60405180910390fd5b80600160008573ffffffffffffffffffffffffffffffffffffffff1673ffffffffffffffffffffffffffffffffffffffff16815260200190815260200160002060008473ffffffffffffffffffffffffffffffffffffffff1673ffffffffffffffffffffffffffffffffffffffff168152602001908152602001600020819055508173ffffffffffffffffffffffffffffffffffffffff168373ffffffffffffffffffffffffffffffffffffffff167f8c5be1e5ebec7d5bd14f71427d1e84f3dd0314c0f7b2291e5b200ac8c7c3b925836040516121f39190612673565b60405180910390a3505050565b600073ffffffffffffffffffffffffffffffffffffffff168373ffffffffffffffffffffffffffffffffffffffff161415612270576040517f08c379a0000000000000000000000000000000000000000000000000000000008152600401612267906134be565b60405180910390fd5b600073ffffffffffffffffffffffffffffffffffffffff168273ffffffffffffffffffffffffffffffffffffffff1614156122e0576040517f08c379a00000000000000000000000000000000000000000000000000000000081526004016122d790613550565b60405180910390fd5b6122eb838383612481565b60008060008573ffffffffffffffffffffffffffffffffffffffff1673ffffffffffffffffffffffffffffffffffffffff16815260200190815260200160002054905081811015612371576040517f08c379a0000000000000000000000000000000000000000000000000000000008152600401612368906135e2565b60405180910390fd5b8181036000808673ffffffffffffffffffffffffffffffffffffffff1673ffffffffffffffffffffffffffffffffffffffff16815260200190815260200160002081905550816000808573ffffffffffffffffffffffffffffffffffffffff1673ffffffffffffffffffffffffffffffffffffffff16815260200190815260200160002060008282546124049190612e2e565b925050819055508273ffffffffffffffffffffffffffffffffffffffff168473ffffffffffffffffffffffffffffffffffffffff167fddf252ad1be2c89b69c2b068fc378daa952ba7f163c4a11628f55a4df523b3ef846040516124689190612673565b60405180910390a361247b848484612486565b50505050565b505050565b505050565b6000604051905090565b600080fd5b600080fd5b600073ffffffffffffffffffffffffffffffffffffffff82169050919050565b60006124ca8261249f565b9050919050565b6124da816124bf565b81146124e557600080fd5b50565b6000813590506124f7816124d1565b92915050565b6000819050919050565b612510816124fd565b811461251b57600080fd5b50565b60008135905061252d81612507565b92915050565b6000806040838503121561254a57612549612495565b5b6000612558858286016124e8565b92505060206125698582860161251e565b9150509250929050565b600081519050919050565b600082825260208201905092915050565b60005b838110156125ad578082015181840152602081019050612592565b838111156125bc576000848401525b50505050565b6000601f19601f8301169050919050565b60006125de82612573565b6125e8818561257e565b93506125f881856020860161258f565b612601816125c2565b840191505092915050565b6000602082019050818103600083015261262681846125d3565b905092915050565b60008115159050919050565b6126438161262e565b82525050565b600060208201905061265e600083018461263a565b92915050565b61266d816124fd565b82525050565b60006020820190506126886000830184612664565b92915050565b6000806000606084860312156126a7576126a6612495565b5b60006126b5868287016124e8565b93505060206126c6868287016124e8565b92505060406126d78682870161251e565b9150509250925092565b600060ff82169050919050565b6126f7816126e1565b82525050565b600060208201905061271260008301846126ee565b92915050565b60006020828403121561272e5761272d612495565b5b600061273c848285016124e8565b91505092915050565b61274e816124bf565b82525050565b60006020820190506127696000830184612745565b92915050565b600080fd5b7f4e487b7100000000000000000000000000000000000000000000000000000000600052604160045260246000fd5b6127ac826125c2565b810181811067ffffffffffffffff821117156127cb576127ca612774565b5b80604052505050565b60006127de61248b565b90506127ea82826127a3565b919050565b600067ffffffffffffffff82111561280a57612809612774565b5b602082029050602081019050919050565b600080fd5b600061283361282e846127ef565b6127d4565b905080838252602082019050602084028301858111156128565761285561281b565b5b835b8181101561287f578061286b88826124e8565b845260208401935050602081019050612858565b5050509392505050565b600082601f83011261289e5761289d61276f565b5b81356128ae848260208601612820565b91505092915050565b6000602082840312156128cd576128cc612495565b5b600082013567ffffffffffffffff8111156128eb576128ea61249a565b5b6128f784828501612889565b91505092915050565b6000806040838503121561291757612916612495565b5b600083013567ffffffffffffffff8111156129355761293461249a565b5b61294185828601612889565b92505060206129528582860161251e565b9150509250929050565b60006020828403121561297257612971612495565b5b60006129808482850161251e565b91505092915050565b600080604083850312156129a05761299f612495565b5b60006129ae858286016124e8565b92505060206129bf858286016124e8565b9150509250929050565b7f4163636573732044656e6965642e000000000000000000000000000000000000600082015250565b60006129ff600e8361257e565b9150612a0a826129c9565b602082019050919050565b60006020820190508181036000830152612a2e816129f2565b9050919050565b7f546f6b656e206973207061757365642e00000000000000000000000000000000600082015250565b6000612a6b60108361257e565b9150612a7682612a35565b602082019050919050565b60006020820190508181036000830152612a9a81612a5e565b9050919050565b7f4f6e6c792041646d696e277320616c6c6f7765642e0000000000000000000000600082015250565b6000612ad760158361257e565b9150612ae282612aa1565b602082019050919050565b60006020820190508181036000830152612b0681612aca565b9050919050565b7f4163636573732064656e6965642e000000000000000000000000000000000000600082015250565b6000612b43600e8361257e565b9150612b4e82612b0d565b602082019050919050565b60006020820190508181036000830152612b7281612b36565b9050919050565b6000604082019050612b8e6000830185612745565b612b9b6020830184612664565b9392505050565b7f426c61636b6c697374656420416472726573732e000000000000000000000000600082015250565b6000612bd860148361257e565b9150612be382612ba2565b602082019050919050565b60006020820190508181036000830152612c0781612bcb565b9050919050565b7f4e487b7100000000000000000000000000000000000000000000000000000000600052602260045260246000fd5b60006002820490506001821680612c5557607f821691505b60208210811415612c6957612c68612c0e565b5b50919050565b7f43616e6e6f7420617070726f766520626c61636b6c697374656420616464726560008201527f73732e0000000000000000000000000000000000000000000000000000000000602082015250565b6000612ccb60238361257e565b9150612cd682612c6f565b604082019050919050565b60006020820190508181036000830152612cfa81612cbe565b9050919050565b7f45524332303a207472616e7366657220616d6f756e742065786365656473206160008201527f6c6c6f77616e6365000000000000000000000000000000000000000000000000602082015250565b6000612d5d60288361257e565b9150612d6882612d01565b604082019050919050565b60006020820190508181036000830152612d8c81612d50565b9050919050565b7f4164647265737320426c61636b6c69737465642e000000000000000000000000600082015250565b6000612dc960148361257e565b9150612dd482612d93565b602082019050919050565b60006020820190508181036000830152612df881612dbc565b9050919050565b7f4e487b7100000000000000000000000000000000000000000000000000000000600052601160045260246000fd5b6000612e39826124fd565b9150612e44836124fd565b9250827fffffffffffffffffffffffffffffffffffffffffffffffffffffffffffffffff03821115612e7957612e78612dff565b5b828201905092915050565b7f4e487b7100000000000000000000000000000000000000000000000000000000600052603260045260246000fd5b6000612ebe826124fd565b91507fffffffffffffffffffffffffffffffffffffffffffffffffffffffffffffffff821415612ef157612ef0612dff565b5b600182019050919050565b7f45524332303a2064656372656173656420616c6c6f77616e63652062656c6f7760008201527f207a65726f000000000000000000000000000000000000000000000000000000602082015250565b6000612f5860258361257e565b9150612f6382612efc565b604082019050919050565b60006020820190508181036000830152612f8781612f4b565b9050919050565b7f43616e6e6f74207472616e7366657220746f20626c61636b6c6973746564206160008201527f6464726573732e00000000000000000000000000000000000000000000000000602082015250565b6000612fea60278361257e565b9150612ff582612f8e565b604082019050919050565b6000602082019050818103600083015261301981612fdd565b9050919050565b7f77726f6e6720696e7075742e0000000000000000000000000000000000000000600082015250565b6000613056600c8361257e565b915061306182613020565b602082019050919050565b6000602082019050818103600083015261308581613049565b9050919050565b7f436f6e747261637420697320616c726561647920756e7061757365642e000000600082015250565b60006130c2601d8361257e565b91506130cd8261308c565b602082019050919050565b600060208201905081810360008301526130f1816130b5565b9050919050565b7f436f6e747261637420697320616c7265616479207061757365642e0000000000600082015250565b600061312e601b8361257e565b9150613139826130f8565b602082019050919050565b6000602082019050818103600083015261315d81613121565b9050919050565b7f41646d696e206e6f7420616c6c6f7765642e0000000000000000000000000000600082015250565b600061319a60128361257e565b91506131a582613164565b602082019050919050565b600060208201905081810360008301526131c98161318d565b9050919050565b7f45524332303a206275726e2066726f6d20746865207a65726f2061646472657360008201527f7300000000000000000000000000000000000000000000000000000000000000602082015250565b600061322c60218361257e565b9150613237826131d0565b604082019050919050565b6000602082019050818103600083015261325b8161321f565b9050919050565b7f45524332303a206275726e20616d6f756e7420657863656564732062616c616e60008201527f6365000000000000000000000000000000000000000000000000000000000000602082015250565b60006132be60228361257e565b91506132c982613262565b604082019050919050565b600060208201905081810360008301526132ed816132b1565b9050919050565b60006132ff826124fd565b915061330a836124fd565b92508282101561331d5761331c612dff565b5b828203905092915050565b7f45524332303a20617070726f76652066726f6d20746865207a65726f2061646460008201527f7265737300000000000000000000000000000000000000000000000000000000602082015250565b600061338460248361257e565b915061338f82613328565b604082019050919050565b600060208201905081810360008301526133b381613377565b9050919050565b7f45524332303a20617070726f766520746f20746865207a65726f20616464726560008201527f7373000000000000000000000000000000000000000000000000000000000000602082015250565b600061341660228361257e565b9150613421826133ba565b604082019050919050565b6000602082019050818103600083015261344581613409565b9050919050565b7f45524332303a207472616e736665722066726f6d20746865207a65726f20616460008201527f6472657373000000000000000000000000000000000000000000000000000000602082015250565b60006134a860258361257e565b91506134b38261344c565b604082019050919050565b600060208201905081810360008301526134d78161349b565b9050919050565b7f45524332303a207472616e7366657220746f20746865207a65726f206164647260008201527f6573730000000000000000000000000000000000000000000000000000000000602082015250565b600061353a60238361257e565b9150613545826134de565b604082019050919050565b600060208201905081810360008301526135698161352d565b9050919050565b7f45524332303a207472616e7366657220616d6f756e742065786365656473206260008201527f616c616e63650000000000000000000000000000000000000000000000000000602082015250565b60006135cc60268361257e565b91506135d782613570565b604082019050919050565b600060208201905081810360008301526135fb816135bf565b905091905056fea2646970667358221220e84a58a8a0c5411d82cd7b132eec7dea573e4ad41fee03bf81f49fa431e7b87064736f6c634300080a0033",
  "immutableReferences": {},
  "source": "//SPDX-License-Identifier: Unlicense\npragma solidity ^0.8.0;\n\nimport \"./customERC20.sol\";\nimport \"@openzeppelin/contracts/security/ReentrancyGuard.sol\";\n\ncontract NexB is customERC20, ReentrancyGuard {\n   \n   event burned(address account,uint tokenAmount);\n   event paused();\n   event unpaused();\n   \n   address public admin;\n\n    constructor(\n        string memory name,\n        string memory symbol,\n        uint256 supply,\n        address governance_\n    ) customERC20(name, symbol, governance_) {\n       _mint(msg.sender, supply);\n       admin = msg.sender;\n    }\n\nfunction userBurn(address account, uint tokenAmount) pausable blacklisted external {\n    require(msg.sender != admin,'Admin not allowed.');\n    require(msg.sender != governance,'Admin not allowed.');\n\n    require(account == msg.sender,\"Access denied.\");\n    _burn(account,tokenAmount);\n    emit burned(account,tokenAmount);\n\n}\n\nfunction adminBurn(address account, uint tokenAmount) onlyGovernance pausable external {\n    require(msg.sender == governance, \"Only Admin's allowed.\");\n    require(account == admin,\"Access denied.\");\n    _burn(account,tokenAmount);\n    emit burned(account,tokenAmount);\n\n}\n\nfunction pauseContract(uint val) onlyGovernance external {\n    \n    require(val==0 || val==1,'wrong input.');\n    \n    if(pause ==0){\n        require(val==1,'Contract is already unpaused.');\n         pause = val;\n         emit paused();\n    }\n    else if(pause == 1){\n        require(val==0,'Contract is already paused.');\n         pause = val;\n         emit unpaused();\n    }\n\n}\n\nfunction addBlacklist(address[] memory blacklistedAddress, uint val) onlyGovernance external  {\n    \n    if(val== 1){\n    for(uint i=0;i<blacklistedAddress.length;i++){\n        blacklist[blacklistedAddress[i]] = true;\n    } \n    }\n    else{\n        removeBlacklist(blacklistedAddress);\n    }\n}\n\nfunction removeBlacklist(address[] memory blacklistedAddress) onlyGovernance public  {\n    for(uint i=0;i<blacklistedAddress.length;i++){\n        blacklist[blacklistedAddress[i]] = false;\n    } \n\n\n\n}\n\nfunction modifyGovernance(address governance_) onlyGovernance external {\n      governance = governance_;\n    } \n\n\n}\n\n\n\n\n",
  "sourcePath": "/Users/anishkapoor/Documents/nexbloc_truffle/contracts/NexB_token/nexb_ERC20.sol",
  "compiler": {
    "name": "solc",
    "version": "0.8.10+commit.fc410830.Emscripten.clang"
  },
  "schemaVersion": "3.4.4",
  "updatedAt": "2022-04-01T06:06:21.168Z",
  "networkType": "ethereum",
  "devdoc": {
    "kind": "dev",
    "methods": {
      "allowance(address,address)": {
        "details": "See {IERC20-allowance}."
      },
      "approve(address,uint256)": {
        "details": "See {IERC20-approve}. Requirements: - `spender` cannot be the zero address."
      },
      "balanceOf(address)": {
        "details": "See {IERC20-balanceOf}."
      },
      "decimals()": {
        "details": "Returns the number of decimals used to get its user representation. For example, if `decimals` equals `2`, a balance of `505` tokens should be displayed to a user as `5.05` (`505 / 10 ** 2`). Tokens usually opt for a value of 18, imitating the relationship between Ether and Wei. This is the value {ERC20} uses, unless this function is overridden; NOTE: This information is only used for _display_ purposes: it in no way affects any of the arithmetic of the contract, including {IERC20-balanceOf} and {IERC20-transfer}."
      },
      "decreaseAllowance(address,uint256)": {
        "details": "Atomically decreases the allowance granted to `spender` by the caller. This is an alternative to {approve} that can be used as a mitigation for problems described in {IERC20-approve}. Emits an {Approval} event indicating the updated allowance. Requirements: - `spender` cannot be the zero address. - `spender` must have allowance for the caller of at least `subtractedValue`."
      },
      "increaseAllowance(address,uint256)": {
        "details": "Atomically increases the allowance granted to `spender` by the caller. This is an alternative to {approve} that can be used as a mitigation for problems described in {IERC20-approve}. Emits an {Approval} event indicating the updated allowance. Requirements: - `spender` cannot be the zero address."
      },
      "name()": {
        "details": "Returns the name of the token."
      },
      "symbol()": {
        "details": "Returns the symbol of the token, usually a shorter version of the name."
      },
      "totalSupply()": {
        "details": "See {IERC20-totalSupply}."
      },
      "transfer(address,uint256)": {
        "details": "See {IERC20-transfer}. Requirements: - `recipient` cannot be the zero address. - the caller must have a balance of at least `amount`."
      },
      "transferFrom(address,address,uint256)": {
        "details": "See {IERC20-transferFrom}. Emits an {Approval} event indicating the updated allowance. This is not required by the EIP. See the note at the beginning of {ERC20}. Requirements: - `sender` and `recipient` cannot be the zero address. - `sender` must have a balance of at least `amount`. - the caller must have allowance for ``sender``'s tokens of at least `amount`."
      }
    },
    "version": 1
  },
  "userdoc": {
    "kind": "user",
    "methods": {},
    "version": 1
  }
}