{
  "contractName": "NexbGovernance",
  "abi": [
    {
      "anonymous": false,
      "inputs": [],
      "name": "ApprovalWithdrawn",
      "type": "event"
    },
    {
      "anonymous": false,
      "inputs": [],
      "name": "Approved",
      "type": "event"
    },
    {
      "anonymous": false,
      "inputs": [],
      "name": "DisapprovalWithdrawn",
      "type": "event"
    },
    {
      "anonymous": false,
      "inputs": [],
      "name": "PauseUnpause",
      "type": "event"
    },
    {
      "anonymous": false,
      "inputs": [
        {
          "indexed": false,
          "internalType": "uint256",
          "name": "amount",
          "type": "uint256"
        }
      ],
      "name": "burn",
      "type": "event"
    },
    {
      "anonymous": false,
      "inputs": [],
      "name": "disapproved",
      "type": "event"
    },
    {
      "anonymous": false,
      "inputs": [],
      "name": "systemReset",
      "type": "event"
    },
    {
      "inputs": [],
      "name": "approvalCount",
      "outputs": [
        {
          "internalType": "uint256",
          "name": "",
          "type": "uint256"
        }
      ],
      "stateMutability": "view",
      "type": "function",
      "constant": true
    },
    {
      "inputs": [
        {
          "internalType": "address",
          "name": "",
          "type": "address"
        }
      ],
      "name": "approvals",
      "outputs": [
        {
          "internalType": "bool",
          "name": "",
          "type": "bool"
        }
      ],
      "stateMutability": "view",
      "type": "function",
      "constant": true
    },
    {
      "inputs": [
        {
          "internalType": "uint256",
          "name": "",
          "type": "uint256"
        }
      ],
      "name": "approvedAddresses",
      "outputs": [
        {
          "internalType": "address",
          "name": "",
          "type": "address"
        }
      ],
      "stateMutability": "view",
      "type": "function",
      "constant": true
    },
    {
      "inputs": [
        {
          "internalType": "uint256",
          "name": "",
          "type": "uint256"
        }
      ],
      "name": "blacklist",
      "outputs": [
        {
          "internalType": "address",
          "name": "",
          "type": "address"
        }
      ],
      "stateMutability": "view",
      "type": "function",
      "constant": true
    },
    {
      "inputs": [],
      "name": "burnAccount",
      "outputs": [
        {
          "internalType": "address",
          "name": "",
          "type": "address"
        }
      ],
      "stateMutability": "view",
      "type": "function",
      "constant": true
    },
    {
      "inputs": [],
      "name": "burnAmount",
      "outputs": [
        {
          "internalType": "uint256",
          "name": "",
          "type": "uint256"
        }
      ],
      "stateMutability": "view",
      "type": "function",
      "constant": true
    },
    {
      "inputs": [],
      "name": "disapprovalCount",
      "outputs": [
        {
          "internalType": "uint256",
          "name": "",
          "type": "uint256"
        }
      ],
      "stateMutability": "view",
      "type": "function",
      "constant": true
    },
    {
      "inputs": [
        {
          "internalType": "address",
          "name": "",
          "type": "address"
        }
      ],
      "name": "disapprovals",
      "outputs": [
        {
          "internalType": "bool",
          "name": "",
          "type": "bool"
        }
      ],
      "stateMutability": "view",
      "type": "function",
      "constant": true
    },
    {
      "inputs": [],
      "name": "governance",
      "outputs": [
        {
          "internalType": "address",
          "name": "",
          "type": "address"
        }
      ],
      "stateMutability": "view",
      "type": "function",
      "constant": true
    },
    {
      "inputs": [],
      "name": "pause",
      "outputs": [
        {
          "internalType": "uint256",
          "name": "",
          "type": "uint256"
        }
      ],
      "stateMutability": "view",
      "type": "function",
      "constant": true
    },
    {
      "inputs": [],
      "name": "token",
      "outputs": [
        {
          "internalType": "address",
          "name": "",
          "type": "address"
        }
      ],
      "stateMutability": "view",
      "type": "function",
      "constant": true
    },
    {
      "inputs": [],
      "name": "val",
      "outputs": [
        {
          "internalType": "uint256",
          "name": "",
          "type": "uint256"
        }
      ],
      "stateMutability": "view",
      "type": "function",
      "constant": true
    },
    {
      "inputs": [
        {
          "internalType": "address[]",
          "name": "_approvedAddresses",
          "type": "address[]"
        },
        {
          "internalType": "address",
          "name": "token_",
          "type": "address"
        }
      ],
      "name": "initialize",
      "outputs": [],
      "stateMutability": "nonpayable",
      "type": "function"
    },
    {
      "inputs": [
        {
          "internalType": "uint256",
          "name": "val_",
          "type": "uint256"
        }
      ],
      "name": "makePausableRequest",
      "outputs": [],
      "stateMutability": "nonpayable",
      "type": "function"
    },
    {
      "inputs": [
        {
          "internalType": "address",
          "name": "account",
          "type": "address"
        },
        {
          "internalType": "uint256",
          "name": "amount",
          "type": "uint256"
        }
      ],
      "name": "makeBurnRequest",
      "outputs": [],
      "stateMutability": "nonpayable",
      "type": "function"
    },
    {
      "inputs": [
        {
          "internalType": "address[]",
          "name": "blacklist_",
          "type": "address[]"
        },
        {
          "internalType": "uint256",
          "name": "val_",
          "type": "uint256"
        }
      ],
      "name": "makeBlacklistRequest",
      "outputs": [],
      "stateMutability": "nonpayable",
      "type": "function"
    },
    {
      "inputs": [
        {
          "internalType": "address",
          "name": "governance_",
          "type": "address"
        }
      ],
      "name": "makeGovernanceRequest",
      "outputs": [],
      "stateMutability": "nonpayable",
      "type": "function"
    },
    {
      "inputs": [],
      "name": "giveApproval",
      "outputs": [],
      "stateMutability": "nonpayable",
      "type": "function"
    },
    {
      "inputs": [],
      "name": "withdrawApproval",
      "outputs": [],
      "stateMutability": "nonpayable",
      "type": "function"
    },
    {
      "inputs": [],
      "name": "sendPausableRequest",
      "outputs": [],
      "stateMutability": "nonpayable",
      "type": "function"
    },
    {
      "inputs": [],
      "name": "sendBurnRequest",
      "outputs": [],
      "stateMutability": "nonpayable",
      "type": "function"
    },
    {
      "inputs": [],
      "name": "sendBlacklistRequest",
      "outputs": [],
      "stateMutability": "nonpayable",
      "type": "function"
    },
    {
      "inputs": [],
      "name": "sendGovernanceRequest",
      "outputs": [],
      "stateMutability": "nonpayable",
      "type": "function"
    },
    {
      "inputs": [],
      "name": "disapproval",
      "outputs": [],
      "stateMutability": "nonpayable",
      "type": "function"
    },
    {
      "inputs": [],
      "name": "withdrawDisapproval",
      "outputs": [],
      "stateMutability": "nonpayable",
      "type": "function"
    },
    {
      "inputs": [],
      "name": "resetGovernance",
      "outputs": [],
      "stateMutability": "nonpayable",
      "type": "function"
    }
  ],
  "bytecode": "0x608060405234801561001057600080fd5b50613645806100206000396000f3fe608060405234801561001057600080fd5b506004361061018e5760003560e01c80638456cb59116100de578063c03d47c011610097578063ee1423f911610071578063ee1423f9146103ed578063f68fef37146103f7578063fc0c546a14610401578063fe4c49ba1461041f5761018e565b8063c03d47c014610397578063d1c78eff146103c7578063d2007379146103e35761018e565b80638456cb59146102fb578063871b8894146103195780638b2638781461032357806395bf190e1461032d578063a83204361461035d578063adffe8721461037b5761018e565b806356a9b0051161014b57806361f94d891161012557806361f94d891461029b57806363a583fe146102b75780636884d0a6146102c15780637ac74f35146102df5761018e565b806356a9b005146102435780635aa6e6751461024d5780635d0341ba1461026b5761018e565b80630f2a091914610193578063327b32b8146101c35780633c6bb436146101e1578063462d0b2e146101ff578063486a7e6b1461021b578063529fd8d214610239575b600080fd5b6101ad60048036038101906101a891906127cd565b610429565b6040516101ba919061283b565b60405180910390f35b6101cb610468565b6040516101d8919061283b565b60405180910390f35b6101e961048e565b6040516101f69190612865565b60405180910390f35b61021960048036038101906102149190612a05565b610494565b005b6102236106f2565b6040516102309190612865565b60405180910390f35b6102416106f8565b005b61024b6109f3565b005b610255610a89565b604051610262919061283b565b60405180910390f35b61028560048036038101906102809190612a61565b610aaf565b6040516102929190612aa9565b60405180910390f35b6102b560048036038101906102b09190612ac4565b610acf565b005b6102bf610d64565b005b6102c9610fe2565b6040516102d69190612865565b60405180910390f35b6102f960048036038101906102f491906127cd565b610fe8565b005b61030361123b565b6040516103109190612865565b60405180910390f35b610321611241565b005b61032b6113f7565b005b610347600480360381019061034291906127cd565b6116c8565b604051610354919061283b565b60405180910390f35b610365611707565b6040516103729190612865565b60405180910390f35b61039560048036038101906103909190612a61565b61170d565b005b6103b160048036038101906103ac9190612a61565b61199a565b6040516103be9190612aa9565b60405180910390f35b6103e160048036038101906103dc9190612b04565b6119ba565b005b6103eb611cab565b005b6103f5611e61565b005b6103ff612053565b005b610409612258565b604051610416919061283b565b60405180910390f35b61042761227e565b005b6002818154811061043957600080fd5b906000526020600020016000915054906101000a900473ffffffffffffffffffffffffffffffffffffffff1681565b600660009054906101000a900473ffffffffffffffffffffffffffffffffffffffff1681565b60045481565b600060019054906101000a900460ff166104bc5760008054906101000a900460ff16156104c5565b6104c46124e9565b5b610504576040517f08c379a00000000000000000000000000000000000000000000000000000000081526004016104fb90612be3565b60405180910390fd5b60008060019054906101000a900460ff161590508015610554576001600060016101000a81548160ff02191690831515021790555060016000806101000a81548160ff0219169083151502179055505b60005b835181101561066257600184828151811061057557610574612c03565b5b60200260200101519080600181540180825580915050600190039060005260206000200160009091909190916101000a81548173ffffffffffffffffffffffffffffffffffffffff021916908373ffffffffffffffffffffffffffffffffffffffff1602179055506001600d60008684815181106105f6576105f5612c03565b5b602002602001015173ffffffffffffffffffffffffffffffffffffffff1673ffffffffffffffffffffffffffffffffffffffff16815260200190815260200160002060006101000a81548160ff021916908315150217905550808061065a90612c61565b915050610557565b5060006009819055506000600a8190555081600560006101000a81548173ffffffffffffffffffffffffffffffffffffffff021916908373ffffffffffffffffffffffffffffffffffffffff16021790555060096003819055506000600881905550600960048190555080156106ed5760008060016101000a81548160ff0219169083151502179055505b505050565b60085481565b600d60003373ffffffffffffffffffffffffffffffffffffffff1673ffffffffffffffffffffffffffffffffffffffff16815260200190815260200160002060009054906101000a900460ff16610784576040517f08c379a000000000000000000000000000000000000000000000000000000000815260040161077b90612d1c565b60405180910390fd5b60096003541415806107f457506000600854141580156107f35750600073ffffffffffffffffffffffffffffffffffffffff16600660009054906101000a900473ffffffffffffffffffffffffffffffffffffffff1673ffffffffffffffffffffffffffffffffffffffff1614155b5b806108055750600060028054905014155b8061085f5750600073ffffffffffffffffffffffffffffffffffffffff16600760009054906101000a900473ffffffffffffffffffffffffffffffffffffffff1673ffffffffffffffffffffffffffffffffffffffff1614155b61089e576040517f08c379a000000000000000000000000000000000000000000000000000000000815260040161089590612d88565b60405180910390fd5b600c60003373ffffffffffffffffffffffffffffffffffffffff1673ffffffffffffffffffffffffffffffffffffffff16815260200190815260200160002060009054906101000a900460ff161561092b576040517f08c379a000000000000000000000000000000000000000000000000000000000815260040161092290612df4565b60405180910390fd5b6000600260018054905061093f9190612e43565b90506001600c60003373ffffffffffffffffffffffffffffffffffffffff1673ffffffffffffffffffffffffffffffffffffffff16815260200190815260200160002060006101000a81548160ff021916908315150217905550600a60008154809291906109ac90612c61565b919050555080600a5411156109c4576109c36124fa565b5b7f5d610ef136861acc6f86387ead947f744762335130e03dce2e00ccc067324e4960405160405180910390a150565b600d60003373ffffffffffffffffffffffffffffffffffffffff1673ffffffffffffffffffffffffffffffffffffffff16815260200190815260200160002060009054906101000a900460ff16610a7f576040517f08c379a0000000000000000000000000000000000000000000000000000000008152600401610a7690612d1c565b60405180910390fd5b610a876124fa565b565b600760009054906101000a900473ffffffffffffffffffffffffffffffffffffffff1681565b600b6020528060005260406000206000915054906101000a900460ff1681565b600d60003373ffffffffffffffffffffffffffffffffffffffff1673ffffffffffffffffffffffffffffffffffffffff16815260200190815260200160002060009054906101000a900460ff16610b5b576040517f08c379a0000000000000000000000000000000000000000000000000000000008152600401610b5290612d1c565b60405180910390fd5b600073ffffffffffffffffffffffffffffffffffffffff16600760009054906101000a900473ffffffffffffffffffffffffffffffffffffffff1673ffffffffffffffffffffffffffffffffffffffff1614610bec576040517f08c379a0000000000000000000000000000000000000000000000000000000008152600401610be390612ee6565b60405180910390fd5b6000600854148015610c4c5750600073ffffffffffffffffffffffffffffffffffffffff16600660009054906101000a900473ffffffffffffffffffffffffffffffffffffffff1673ffffffffffffffffffffffffffffffffffffffff16145b610c8b576040517f08c379a0000000000000000000000000000000000000000000000000000000008152600401610c8290612f52565b60405180910390fd5b600960035414610cd0576040517f08c379a0000000000000000000000000000000000000000000000000000000008152600401610cc790612fe4565b60405180910390fd5b600060028054905014610d18576040517f08c379a0000000000000000000000000000000000000000000000000000000008152600401610d0f90613076565b60405180910390fd5b81600660006101000a81548173ffffffffffffffffffffffffffffffffffffffff021916908373ffffffffffffffffffffffffffffffffffffffff160217905550806008819055505050565b600d60003373ffffffffffffffffffffffffffffffffffffffff1673ffffffffffffffffffffffffffffffffffffffff16815260200190815260200160002060009054906101000a900460ff16610df0576040517f08c379a0000000000000000000000000000000000000000000000000000000008152600401610de790612d1c565b60405180910390fd5b600060085414158015610e525750600073ffffffffffffffffffffffffffffffffffffffff16600660009054906101000a900473ffffffffffffffffffffffffffffffffffffffff1673ffffffffffffffffffffffffffffffffffffffff1614155b610e91576040517f08c379a0000000000000000000000000000000000000000000000000000000008152600401610e88906130e2565b60405180910390fd5b60006002600180549050610ea59190612e43565b90508060095411610eeb576040517f08c379a0000000000000000000000000000000000000000000000000000000008152600401610ee29061314e565b60405180910390fd5b600560009054906101000a900473ffffffffffffffffffffffffffffffffffffffff1673ffffffffffffffffffffffffffffffffffffffff166306dd0419600660009054906101000a900473ffffffffffffffffffffffffffffffffffffffff166008546040518363ffffffff1660e01b8152600401610f6c92919061316e565b600060405180830381600087803b158015610f8657600080fd5b505af1158015610f9a573d6000803e3d6000fd5b50505050610fa66124fa565b7f42966c689b5afe9b9b3f8a7103b2a19980d59629bfd6a20a60972312ed41d836600854604051610fd79190612865565b60405180910390a150565b60095481565b600d60003373ffffffffffffffffffffffffffffffffffffffff1673ffffffffffffffffffffffffffffffffffffffff16815260200190815260200160002060009054906101000a900460ff16611074576040517f08c379a000000000000000000000000000000000000000000000000000000000815260040161106b90612d1c565b60405180910390fd5b600073ffffffffffffffffffffffffffffffffffffffff16600760009054906101000a900473ffffffffffffffffffffffffffffffffffffffff1673ffffffffffffffffffffffffffffffffffffffff1614611105576040517f08c379a00000000000000000000000000000000000000000000000000000000081526004016110fc90612ee6565b60405180910390fd5b60096003541461114a576040517f08c379a000000000000000000000000000000000000000000000000000000000815260040161114190612fe4565b60405180910390fd5b60006008541480156111aa5750600073ffffffffffffffffffffffffffffffffffffffff16600660009054906101000a900473ffffffffffffffffffffffffffffffffffffffff1673ffffffffffffffffffffffffffffffffffffffff16145b6111e9576040517f08c379a00000000000000000000000000000000000000000000000000000000081526004016111e090612f52565b60405180910390fd5b600060028054905014611231576040517f08c379a000000000000000000000000000000000000000000000000000000000815260040161122890613076565b60405180910390fd5b8060038190555050565b60035481565b600d60003373ffffffffffffffffffffffffffffffffffffffff1673ffffffffffffffffffffffffffffffffffffffff16815260200190815260200160002060009054906101000a900460ff166112cd576040517f08c379a00000000000000000000000000000000000000000000000000000000081526004016112c490612d1c565b60405180910390fd5b600c60003373ffffffffffffffffffffffffffffffffffffffff1673ffffffffffffffffffffffffffffffffffffffff16815260200190815260200160002060009054906101000a900460ff16611359576040517f08c379a0000000000000000000000000000000000000000000000000000000008152600401611350906131e3565b60405180910390fd5b600a600081548092919061136c90613203565b91905055506000600c60003373ffffffffffffffffffffffffffffffffffffffff1673ffffffffffffffffffffffffffffffffffffffff16815260200190815260200160002060006101000a81548160ff0219169083151502179055507f6b65869c2d103a82092d182007029a1bf33fdb9bd4d9299dd3ed5d2126bf543d60405160405180910390a1565b600d60003373ffffffffffffffffffffffffffffffffffffffff1673ffffffffffffffffffffffffffffffffffffffff16815260200190815260200160002060009054906101000a900460ff16611483576040517f08c379a000000000000000000000000000000000000000000000000000000000815260040161147a90612d1c565b60405180910390fd5b60096003541415806114f357506000600854141580156114f25750600073ffffffffffffffffffffffffffffffffffffffff16600660009054906101000a900473ffffffffffffffffffffffffffffffffffffffff1673ffffffffffffffffffffffffffffffffffffffff1614155b5b806115045750600060028054905014155b8061155e5750600073ffffffffffffffffffffffffffffffffffffffff16600760009054906101000a900473ffffffffffffffffffffffffffffffffffffffff1673ffffffffffffffffffffffffffffffffffffffff1614155b61159d576040517f08c379a000000000000000000000000000000000000000000000000000000000815260040161159490612d88565b60405180910390fd5b600b60003373ffffffffffffffffffffffffffffffffffffffff1673ffffffffffffffffffffffffffffffffffffffff16815260200190815260200160002060009054906101000a900460ff161561162a576040517f08c379a000000000000000000000000000000000000000000000000000000000815260040161162190613279565b60405180910390fd5b6009600081548092919061163d90612c61565b91905055506001600b60003373ffffffffffffffffffffffffffffffffffffffff1673ffffffffffffffffffffffffffffffffffffffff16815260200190815260200160002060006101000a81548160ff0219169083151502179055507f5de8e1faddeb54f5a59778c514254ea03868310d878ada71ed5118bfc800ea0d60405160405180910390a1565b600181815481106116d857600080fd5b906000526020600020016000915054906101000a900473ffffffffffffffffffffffffffffffffffffffff1681565b600a5481565b600d60003373ffffffffffffffffffffffffffffffffffffffff1673ffffffffffffffffffffffffffffffffffffffff16815260200190815260200160002060009054906101000a900460ff16611799576040517f08c379a000000000000000000000000000000000000000000000000000000000815260040161179090612d1c565b60405180910390fd5b600073ffffffffffffffffffffffffffffffffffffffff16600760009054906101000a900473ffffffffffffffffffffffffffffffffffffffff1673ffffffffffffffffffffffffffffffffffffffff161461182a576040517f08c379a000000000000000000000000000000000000000000000000000000000815260040161182190612ee6565b60405180910390fd5b60096003541461186f576040517f08c379a000000000000000000000000000000000000000000000000000000000815260040161186690612fe4565b60405180910390fd5b60006008541480156118cf5750600073ffffffffffffffffffffffffffffffffffffffff16600660009054906101000a900473ffffffffffffffffffffffffffffffffffffffff1673ffffffffffffffffffffffffffffffffffffffff16145b61190e576040517f08c379a000000000000000000000000000000000000000000000000000000000815260040161190590612f52565b60405180910390fd5b600060028054905014611956576040517f08c379a000000000000000000000000000000000000000000000000000000000815260040161194d90613076565b60405180910390fd5b80600760006101000a81548173ffffffffffffffffffffffffffffffffffffffff021916908373ffffffffffffffffffffffffffffffffffffffff16021790555050565b600c6020528060005260406000206000915054906101000a900460ff1681565b600d60003373ffffffffffffffffffffffffffffffffffffffff1673ffffffffffffffffffffffffffffffffffffffff16815260200190815260200160002060009054906101000a900460ff16611a46576040517f08c379a0000000000000000000000000000000000000000000000000000000008152600401611a3d90612d1c565b60405180910390fd5b600073ffffffffffffffffffffffffffffffffffffffff16600760009054906101000a900473ffffffffffffffffffffffffffffffffffffffff1673ffffffffffffffffffffffffffffffffffffffff1614611ad7576040517f08c379a0000000000000000000000000000000000000000000000000000000008152600401611ace90612ee6565b60405180910390fd5b600060028054905014611b1f576040517f08c379a0000000000000000000000000000000000000000000000000000000008152600401611b1690613076565b60405180910390fd5b600960035414611b64576040517f08c379a0000000000000000000000000000000000000000000000000000000008152600401611b5b90612fe4565b60405180910390fd5b6000600854148015611bc45750600073ffffffffffffffffffffffffffffffffffffffff16600660009054906101000a900473ffffffffffffffffffffffffffffffffffffffff1673ffffffffffffffffffffffffffffffffffffffff16145b611c03576040517f08c379a0000000000000000000000000000000000000000000000000000000008152600401611bfa90612f52565b60405180910390fd5b60005b8251811015611c9f576002838281518110611c2457611c23612c03565b5b60200260200101519080600181540180825580915050600190039060005260206000200160009091909190916101000a81548173ffffffffffffffffffffffffffffffffffffffff021916908373ffffffffffffffffffffffffffffffffffffffff1602179055508080611c9790612c61565b915050611c06565b50806004819055505050565b600d60003373ffffffffffffffffffffffffffffffffffffffff1673ffffffffffffffffffffffffffffffffffffffff16815260200190815260200160002060009054906101000a900460ff16611d37576040517f08c379a0000000000000000000000000000000000000000000000000000000008152600401611d2e90612d1c565b60405180910390fd5b600b60003373ffffffffffffffffffffffffffffffffffffffff1673ffffffffffffffffffffffffffffffffffffffff16815260200190815260200160002060009054906101000a900460ff16611dc3576040517f08c379a0000000000000000000000000000000000000000000000000000000008152600401611dba906132e5565b60405180910390fd5b60096000815480929190611dd690613203565b91905055506000600b60003373ffffffffffffffffffffffffffffffffffffffff1673ffffffffffffffffffffffffffffffffffffffff16815260200190815260200160002060006101000a81548160ff0219169083151502179055507fe7e444287bd77c67d0ce141024c39fc24dab2df3d97f6bde17e6a97ba4ba064860405160405180910390a1565b600d60003373ffffffffffffffffffffffffffffffffffffffff1673ffffffffffffffffffffffffffffffffffffffff16815260200190815260200160002060009054906101000a900460ff16611eed576040517f08c379a0000000000000000000000000000000000000000000000000000000008152600401611ee490612d1c565b60405180910390fd5b60096003541415611f33576040517f08c379a0000000000000000000000000000000000000000000000000000000008152600401611f2a90613377565b60405180910390fd5b60006002600180549050611f479190612e43565b90508060095411611f8d576040517f08c379a0000000000000000000000000000000000000000000000000000000008152600401611f849061314e565b60405180910390fd5b600560009054906101000a900473ffffffffffffffffffffffffffffffffffffffff1673ffffffffffffffffffffffffffffffffffffffff1663c2852f386003546040518263ffffffff1660e01b8152600401611fea9190612865565b600060405180830381600087803b15801561200457600080fd5b505af1158015612018573d6000803e3d6000fd5b505050506120246124fa565b7f2de61fc9d5bacbefcb94b23d2d196a494fb2d66d23de2b9ebc8225e9b2bc0eca60405160405180910390a150565b600d60003373ffffffffffffffffffffffffffffffffffffffff1673ffffffffffffffffffffffffffffffffffffffff16815260200190815260200160002060009054906101000a900460ff166120df576040517f08c379a00000000000000000000000000000000000000000000000000000000081526004016120d690612d1c565b60405180910390fd5b60006002805490501415612128576040517f08c379a000000000000000000000000000000000000000000000000000000000815260040161211f90613409565b60405180910390fd5b6000600260018054905061213c9190612e43565b90508060095411612182576040517f08c379a00000000000000000000000000000000000000000000000000000000081526004016121799061314e565b60405180910390fd5b600560009054906101000a900473ffffffffffffffffffffffffffffffffffffffff1673ffffffffffffffffffffffffffffffffffffffff1663c0207c2f60026004546040518363ffffffff1660e01b81526004016121e292919061354d565b600060405180830381600087803b1580156121fc57600080fd5b505af1158015612210573d6000803e3d6000fd5b5050505061221c6124fa565b7f42966c689b5afe9b9b3f8a7103b2a19980d59629bfd6a20a60972312ed41d83660085460405161224d9190612865565b60405180910390a150565b600560009054906101000a900473ffffffffffffffffffffffffffffffffffffffff1681565b600d60003373ffffffffffffffffffffffffffffffffffffffff1673ffffffffffffffffffffffffffffffffffffffff16815260200190815260200160002060009054906101000a900460ff1661230a576040517f08c379a000000000000000000000000000000000000000000000000000000000815260040161230190612d1c565b60405180910390fd5b600073ffffffffffffffffffffffffffffffffffffffff16600760009054906101000a900473ffffffffffffffffffffffffffffffffffffffff1673ffffffffffffffffffffffffffffffffffffffff16141561239c576040517f08c379a0000000000000000000000000000000000000000000000000000000008152600401612393906135ef565b60405180910390fd5b600060026001805490506123b09190612e43565b905080600954116123f6576040517f08c379a00000000000000000000000000000000000000000000000000000000081526004016123ed9061314e565b60405180910390fd5b600560009054906101000a900473ffffffffffffffffffffffffffffffffffffffff1673ffffffffffffffffffffffffffffffffffffffff166354639406600760009054906101000a900473ffffffffffffffffffffffffffffffffffffffff166040518263ffffffff1660e01b8152600401612473919061283b565b600060405180830381600087803b15801561248d57600080fd5b505af11580156124a1573d6000803e3d6000fd5b505050506124ad6124fa565b7f42966c689b5afe9b9b3f8a7103b2a19980d59629bfd6a20a60972312ed41d8366008546040516124de9190612865565b60405180910390a150565b60006124f430612732565b15905090565b60006009819055506000600a8190555060005b600180549050811015612659576000600b60006001848154811061253457612533612c03565b5b9060005260206000200160009054906101000a900473ffffffffffffffffffffffffffffffffffffffff1673ffffffffffffffffffffffffffffffffffffffff1673ffffffffffffffffffffffffffffffffffffffff16815260200190815260200160002060006101000a81548160ff0219169083151502179055506000600c6000600184815481106125ca576125c9612c03565b5b9060005260206000200160009054906101000a900473ffffffffffffffffffffffffffffffffffffffff1673ffffffffffffffffffffffffffffffffffffffff1673ffffffffffffffffffffffffffffffffffffffff16815260200190815260200160002060006101000a81548160ff021916908315150217905550808061265190612c61565b91505061250d565b5060096003819055506000600660006101000a81548173ffffffffffffffffffffffffffffffffffffffff021916908373ffffffffffffffffffffffffffffffffffffffff16021790555060006008819055506009600481905550600260006126c29190612745565b6000600760006101000a81548173ffffffffffffffffffffffffffffffffffffffff021916908373ffffffffffffffffffffffffffffffffffffffff1602179055507fbbdfe5f18ca85b51192c7798719bdc8b254870db53b15102212d06fde81c0b7860405160405180910390a1565b600080823b905060008111915050919050565b50805460008255906000526020600020908101906127639190612766565b50565b5b8082111561277f576000816000905550600101612767565b5090565b6000604051905090565b600080fd5b600080fd5b6000819050919050565b6127aa81612797565b81146127b557600080fd5b50565b6000813590506127c7816127a1565b92915050565b6000602082840312156127e3576127e261278d565b5b60006127f1848285016127b8565b91505092915050565b600073ffffffffffffffffffffffffffffffffffffffff82169050919050565b6000612825826127fa565b9050919050565b6128358161281a565b82525050565b6000602082019050612850600083018461282c565b92915050565b61285f81612797565b82525050565b600060208201905061287a6000830184612856565b92915050565b600080fd5b6000601f19601f8301169050919050565b7f4e487b7100000000000000000000000000000000000000000000000000000000600052604160045260246000fd5b6128ce82612885565b810181811067ffffffffffffffff821117156128ed576128ec612896565b5b80604052505050565b6000612900612783565b905061290c82826128c5565b919050565b600067ffffffffffffffff82111561292c5761292b612896565b5b602082029050602081019050919050565b600080fd5b61294b8161281a565b811461295657600080fd5b50565b60008135905061296881612942565b92915050565b600061298161297c84612911565b6128f6565b905080838252602082019050602084028301858111156129a4576129a361293d565b5b835b818110156129cd57806129b98882612959565b8452602084019350506020810190506129a6565b5050509392505050565b600082601f8301126129ec576129eb612880565b5b81356129fc84826020860161296e565b91505092915050565b60008060408385031215612a1c57612a1b61278d565b5b600083013567ffffffffffffffff811115612a3a57612a39612792565b5b612a46858286016129d7565b9250506020612a5785828601612959565b9150509250929050565b600060208284031215612a7757612a7661278d565b5b6000612a8584828501612959565b91505092915050565b60008115159050919050565b612aa381612a8e565b82525050565b6000602082019050612abe6000830184612a9a565b92915050565b60008060408385031215612adb57612ada61278d565b5b6000612ae985828601612959565b9250506020612afa858286016127b8565b9150509250929050565b60008060408385031215612b1b57612b1a61278d565b5b600083013567ffffffffffffffff811115612b3957612b38612792565b5b612b45858286016129d7565b9250506020612b56858286016127b8565b9150509250929050565b600082825260208201905092915050565b7f496e697469616c697a61626c653a20636f6e747261637420697320616c72656160008201527f647920696e697469616c697a6564000000000000000000000000000000000000602082015250565b6000612bcd602e83612b60565b9150612bd882612b71565b604082019050919050565b60006020820190508181036000830152612bfc81612bc0565b9050919050565b7f4e487b7100000000000000000000000000000000000000000000000000000000600052603260045260246000fd5b7f4e487b7100000000000000000000000000000000000000000000000000000000600052601160045260246000fd5b6000612c6c82612797565b91507fffffffffffffffffffffffffffffffffffffffffffffffffffffffffffffffff821415612c9f57612c9e612c32565b5b600182019050919050565b7f4f6e6c7920617070726f766564204164647265737365732063616e206d616b6560008201527f20726571756573742e0000000000000000000000000000000000000000000000602082015250565b6000612d06602983612b60565b9150612d1182612caa565b604082019050919050565b60006020820190508181036000830152612d3581612cf9565b9050919050565b7f5265717565737420646f6573206e6f74206578697374732e0000000000000000600082015250565b6000612d72601883612b60565b9150612d7d82612d3c565b602082019050919050565b60006020820190508181036000830152612da181612d65565b9050919050565b7f7265717565737420616c726561647920646973617070726f7665642e00000000600082015250565b6000612dde601c83612b60565b9150612de982612da8565b602082019050919050565b60006020820190508181036000830152612e0d81612dd1565b9050919050565b7f4e487b7100000000000000000000000000000000000000000000000000000000600052601260045260246000fd5b6000612e4e82612797565b9150612e5983612797565b925082612e6957612e68612e14565b5b828204905092915050565b7f476f7665726e616e6365207265717565737420616c726561647920657869737460008201527f732e000000000000000000000000000000000000000000000000000000000000602082015250565b6000612ed0602283612b60565b9150612edb82612e74565b604082019050919050565b60006020820190508181036000830152612eff81612ec3565b9050919050565b7f4275726e207265717565737420616c7265616479206578697374732e00000000600082015250565b6000612f3c601c83612b60565b9150612f4782612f06565b602082019050919050565b60006020820190508181036000830152612f6b81612f2f565b9050919050565b7f50617573652f556e7061757365207265717565737420616c726561647920657860008201527f697374732e000000000000000000000000000000000000000000000000000000602082015250565b6000612fce602583612b60565b9150612fd982612f72565b604082019050919050565b60006020820190508181036000830152612ffd81612fc1565b9050919050565b7f426c61636b6c697374207265717565737420616c72656164792065786973747360008201527f2e00000000000000000000000000000000000000000000000000000000000000602082015250565b6000613060602183612b60565b915061306b82613004565b604082019050919050565b6000602082019050818103600083015261308f81613053565b9050919050565b7f4275726e207265717565737420646f6573206e6f74206578697374732e000000600082015250565b60006130cc601d83612b60565b91506130d782613096565b602082019050919050565b600060208201905081810360008301526130fb816130bf565b9050919050565b7f4e6f7420656e6f75676820617070726f76616c732e0000000000000000000000600082015250565b6000613138601583612b60565b915061314382613102565b602082019050919050565b600060208201905081810360008301526131678161312b565b9050919050565b6000604082019050613183600083018561282c565b6131906020830184612856565b9392505050565b7f4861766520746f20646973617070726f76652066697273742e00000000000000600082015250565b60006131cd601983612b60565b91506131d882613197565b602082019050919050565b600060208201905081810360008301526131fc816131c0565b9050919050565b600061320e82612797565b9150600082141561322257613221612c32565b5b600182039050919050565b7f7265717565737420616c726561647920617070726f7665642e00000000000000600082015250565b6000613263601983612b60565b915061326e8261322d565b602082019050919050565b6000602082019050818103600083015261329281613256565b9050919050565b7f4861766520746f20617070726f76652066697273742e00000000000000000000600082015250565b60006132cf601683612b60565b91506132da82613299565b602082019050919050565b600060208201905081810360008301526132fe816132c2565b9050919050565b7f205061757361626c65205265717565737420646f6573206e6f7420657869737460008201527f732e000000000000000000000000000000000000000000000000000000000000602082015250565b6000613361602283612b60565b915061336c82613305565b604082019050919050565b6000602082019050818103600083015261339081613354565b9050919050565b7f426c61636b6c697374207265717565737420646f6573206e6f7420657869737460008201527f732e000000000000000000000000000000000000000000000000000000000000602082015250565b60006133f3602283612b60565b91506133fe82613397565b604082019050919050565b60006020820190508181036000830152613422816133e6565b9050919050565b600081549050919050565b600082825260208201905092915050565b60008190508160005260206000209050919050565b6134638161281a565b82525050565b6000613475838361345a565b60208301905092915050565b60008160001c9050919050565b600073ffffffffffffffffffffffffffffffffffffffff82169050919050565b60006134c16134bc83613481565b61348e565b9050919050565b60006134d482546134ae565b9050919050565b6000600182019050919050565b60006134f382613429565b6134fd8185613434565b935061350883613445565b8060005b838110156135405761351d826134c8565b6135278882613469565b9750613532836134db565b92505060018101905061350c565b5085935050505092915050565b6000604082019050818103600083015261356781856134e8565b90506135766020830184612856565b9392505050565b7f476f7665726e616e6365207265717565737420646f6573206e6f74206578697360008201527f74732e0000000000000000000000000000000000000000000000000000000000602082015250565b60006135d9602383612b60565b91506135e48261357d565b604082019050919050565b60006020820190508181036000830152613608816135cc565b905091905056fea2646970667358221220cdf8e71aecacf22614609257ac47c7542c8d993fb5c92870055518c160217dc764736f6c634300080a0033",
  "immutableReferences": {},
  "source": "// SPDX-License-Identifier: MIT\n\npragma solidity ^0.8.1;\n\nimport './Inexb_ERC20.sol';\nimport \"@openzeppelin/contracts-upgradeable/proxy/utils/Initializable.sol\";\n\n\ncontract NexbGovernance is Initializable{\n\n   event PauseUnpause();  \n   event burn(uint amount);\n   event Approved();\n   event ApprovalWithdrawn();\n   event DisapprovalWithdrawn();\n   event disapproved();\n   event systemReset();\n   \n   \n    modifier approval{\n      require(addresses[msg.sender], 'Only approved Addresses can make request.');\n      _;\n\n    }\n    \n    \n    address[] public approvedAddresses;\n    address[] public blacklist;\n    uint public pause;\n    uint public val;\n    address public token;\n    address public burnAccount;\n    address public governance;\n    uint public burnAmount;\n    uint public approvalCount;\n    uint public disapprovalCount;\n    mapping(address => bool) public approvals;\n    mapping(address => bool) public disapprovals;\n    mapping(address => bool) private addresses;\n    \n    \n    \n    \n    function initialize(address[] memory _approvedAddresses, address token_) initializer external{\n    \n    \n    for(uint i=0;i<_approvedAddresses.length;i++){\n        approvedAddresses.push(_approvedAddresses[i]);\n        addresses[_approvedAddresses[i]] = true;\n    } \n\n    approvalCount=0;\n    disapprovalCount=0;\n    token=token_;\n    pause = 9;\n    burnAmount = 0;\n    val=9;\n\n    \n    } \n\n    \n    function makePausableRequest(uint val_) external approval{\n        \n        require(governance==address(0),'Governance request already exists.');\n        require(pause==9,'Pause/Unpause request already exists.');\n        require(burnAmount ==0 && burnAccount == address(0),'Burn request already exists.');\n        require(blacklist.length == 0, 'Blacklist request already exists.');\n\n        pause = val_;\n        \n    }\n\n    function makeBurnRequest(address account, uint amount) external approval {\n        \n        require(governance==address(0),'Governance request already exists.');\n        require(burnAmount ==0 && burnAccount == address(0),'Burn request already exists.');\n        require(pause==9,'Pause/Unpause request already exists.');\n        require(blacklist.length == 0, 'Blacklist request already exists.');\n\n\n        burnAccount = account;\n        burnAmount = amount;\n\n\n    }\n\n    function makeBlacklistRequest(address[] memory blacklist_, uint val_) external approval {\n        \n        require(governance==address(0),'Governance request already exists.');\n        require(blacklist.length == 0, 'Blacklist request already exists.');\n        require(pause==9 ,'Pause/Unpause request already exists.');\n        require(burnAmount ==0 && burnAccount == address(0),'Burn request already exists.');\n\n        for(uint i=0;i<blacklist_.length;i++){\n        blacklist.push(blacklist_[i]);\n    } \n        val=val_;\n\n\n    }\n\n\n    function makeGovernanceRequest(address governance_) external approval{\n        \n        require(governance==address(0),'Governance request already exists.');\n        require(pause==9,'Pause/Unpause request already exists.');\n        require(burnAmount ==0 && burnAccount == address(0),'Burn request already exists.');\n        require(blacklist.length == 0, 'Blacklist request already exists.');\n\n        governance = governance_;\n        \n    }\n\n\n     \n\n    function giveApproval() external approval{\n        \n        require(pause!=9 || burnAmount !=0 && burnAccount != address(0) || blacklist.length != 0 || governance!=address(0),'Request does not exists.');\n        require(!approvals[msg.sender],'request already approved.');\n        approvalCount++;\n        approvals[msg.sender] = true;\n\n        emit Approved();\n\n    }\n\n    \n    function withdrawApproval() external approval{\n\n        require(approvals[msg.sender],'Have to approve first.');\n        approvalCount--;\n        approvals[msg.sender] = false;\n\n        emit ApprovalWithdrawn();\n    }\n\n    \n    \n    \n    function sendPausableRequest() external approval{\n        \n        \n        require(pause!=9, ' Pausable Request does not exists.');\n        \n        uint approvalsRequired = approvedAddresses.length/2;\n        \n        require(approvalCount>approvalsRequired,'Not enough approvals.');\n\n        Inexb_ERC20(token).pauseContract(pause);\n        reset();\n\n        emit PauseUnpause();\n    }\n\n\n\n     function sendBurnRequest() external approval{\n\n        require(burnAmount !=0 && burnAccount != address(0),'Burn request does not exists.');\n        \n        uint approvalsRequired = approvedAddresses.length/2;\n\n        require(approvalCount>approvalsRequired,'Not enough approvals.');\n\n        Inexb_ERC20(token).adminBurn(burnAccount,burnAmount);\n        reset();\n           \n        emit burn(burnAmount);\n\n  }\n\n   function sendBlacklistRequest() external approval {\n       \n       require(blacklist.length != 0, 'Blacklist request does not exists.');\n\n       uint approvalsRequired = approvedAddresses.length/2;\n\n       require(approvalCount>approvalsRequired,'Not enough approvals.');\n\n       Inexb_ERC20(token).addBlacklist(blacklist,val);\n        reset();\n           \n        emit burn(burnAmount);\n   }\n\n   function sendGovernanceRequest() external approval {\n       \n       require(governance != address(0), 'Governance request does not exists.');\n\n       uint approvalsRequired = approvedAddresses.length/2;\n\n       require(approvalCount>approvalsRequired,'Not enough approvals.');\n\n       Inexb_ERC20(token).modifyGovernance(governance);\n        reset();\n           \n        emit burn(burnAmount);\n   }\n\n\n\n\n    \n    \n    function disapproval() external approval{\n                \n        require(pause!=9 || burnAmount !=0 && burnAccount != address(0) || blacklist.length != 0 || governance!=address(0),'Request does not exists.');\n        require(!disapprovals[msg.sender],'request already disapproved.');\n\n        uint disapprovalsRequired = approvedAddresses.length/2;\n\n        disapprovals[msg.sender]=true;\n        disapprovalCount++;\n\n        if(disapprovalCount>disapprovalsRequired){\n            reset();\n        }\n\n        emit disapproved();\n    }\n\n\n    function withdrawDisapproval() external approval{\n\n        require(disapprovals[msg.sender],'Have to disapprove first.');\n        disapprovalCount--;\n        disapprovals[msg.sender] = false;\n\n        emit DisapprovalWithdrawn();\n    }\n\n    \n    function reset() private {\n        \n        approvalCount=0;\n        disapprovalCount=0;\n        \n        for(uint i=0;i<approvedAddresses.length;i++){\n            approvals[approvedAddresses[i]] = false;\n            disapprovals[approvedAddresses[i]] = false;\n        }\n        \n        pause = 9;\n        burnAccount = address(0);\n        burnAmount = 0;\n        val=9;\n        delete blacklist;\n        governance = address(0);\n\n\n        emit systemReset();\n\n\n\n    }\n    \n    function resetGovernance() approval external{\n        reset();\n    }\n    }\n\n    ",
  "sourcePath": "/Users/anishkapoor/Documents/nexbloc_truffle/contracts/NexB_token/nexB_governance.sol",
  "compiler": {
    "name": "solc",
    "version": "0.8.10+commit.fc410830.Emscripten.clang"
  },
  "schemaVersion": "3.4.4",
  "updatedAt": "2022-04-01T05:56:49.563Z",
  "networkType": "ethereum",
  "devdoc": {
    "kind": "dev",
    "methods": {},
    "version": 1
  },
  "userdoc": {
    "kind": "user",
    "methods": {},
    "version": 1
  }
}